:020000040800F2
:10000000200700243903000863220008F91E0008B5
:1000100061220008AB04000845260008000000002B
:10002000000000000000000000000000A9240008FB
:10003000AD0400080000000065220008AB240008A1
:100040005703000857030008570300085703000828
:100050005703000857030008570300085703000818
:100060005703000857030008570300085703000808
:1000700057030008570300085703000857030008F8
:1000800057030008570300085703000857030008E8
:1000900057030008570300085703000857030008D8
:1000A00057030008570300085703000857030008C8
:1000B00057030008570300085703000857030008B8
:1000C00057030008570300085703000857030008A8
:1000D0005703000857030008570300085703000898
:1000E00057030008570300080000000057030008EA
:1000F0005703000857030008570300085703000878
:100100005703000857030008570300085703000867
:100110005703000857030008570300085703000857
:100120005703000857030008570300085703000847
:100130005703000857030008570300085703000837
:1001400000000000000000000000000000000000AF
:100150005703000857030008570300085703000817
:100160005703000857030008570300085703000807
:100170005703000857030008570300080000000059
:1001800057030008570300085703000857030008E7
:1001900057030008570300085703000857030008D7
:1001A00057030008570300085703000857030008C7
:1001B00057030008570300085703000857030008B7
:1001C00057030008570300085703000857030008A7
:1001D0005703000857030008570300085703000897
:1001E0005703000857030008570300085703000887
:1001F0005703000857030008570300085703000877
:100200005703000857030008570300085703000866
:100210005703000857030008570300085703000856
:1002200057030008570300085703000800000000A8
:100230005703000857030008000000005703000898
:100240005703000857030008570300085703000826
:100250005703000857030008570300085703000816
:100260005703000857030008570300085703000806
:100270005703000857030008570300080000000058
:100280005703000857030008570300080000000048
:10029000000000005703000800F002F800F03CF8EE
:1002A0000AA090E8000C82448344AAF10107DA45D1
:1002B00001D100F031F8AFF2090EBAE80F0013F0E7
:1002C000010F18BFFB1A43F0010318471424000064
:1002D00034240000103A24BF78C878C1FAD85207F5
:1002E00024BF30C830C144BF04680C6070470000B0
:1002F0000023002400250026103A28BF78C1FBD82F
:10030000520728BF30C148BF0B6070471FB502F0CD
:10031000DAF91FBD10B510BD00F08EF81146FFF7D9
:10032000F5FF02F0A1F900F0ACF803B4FFF7F2FF1B
:1003300003BC00F0B3F800000A4880470A48804731
:100340000A480047FEE7FEE7FEE7FEE7FEE7FEE7B6
:10035000FEE7FEE7FEE7FEE705480649064A074BCB
:1003600070470000B50400084D25000899020008F8
:10037000200100242007002420030024200300245F
:1003800010B5203AC0F00B80B1E81850203AA0E830
:100390001850B1E81850A0E81850BFF4F5AF5FEA64
:1003A000027C24BFB1E81850A0E8185044BF18C917
:1003B00018C0BDE810405FEA827C24BF51F8043BBE
:1003C00040F8043B08BF7047D20728BF31F8023B12
:1003D00048BF11F8012B28BF20F8023B48BF00F8A6
:1003E000012B70474FF0000200B513469446964625
:1003F000203922BFA0E80C50A0E80C50B1F1200138
:10040000BFF4F7AF090728BFA0E80C5048BF0CC0E5
:100410005DF804EB890028BF40F8042B08BF704743
:1004200048BF20F8022B11F0804F18BF00F8012BB5
:100430007047704770477047754600F02BF8AE461E
:1004400005006946534620F00700854618B020B5E0
:10045000FFF782FFBDE820404FF000064FF0000795
:100460004FF000084FF0000B21F00701AC46ACE85C
:10047000C009ACE8C009ACE8C009ACE8C0098D46C9
:10048000704710B50446AFF300802046BDE8104029
:10049000FFF74BBF00487047BC00002401491820FB
:1004A000ABBEFEE7260002007047FEE7704772B65B
:1004B000FEE70000054805490839026842F00202DB
:1004C000026008688004FCD5704700000C480258A0
:1004D0002DE9F84F03247F4D00234FF001094FF021
:1004E000B04B4FF00F0AEDE009FA03F632407AD034
:1004F0000F7907F00307012F01D0022F19D1876868
:100500004FEA430ED1F80CC004FA0EF827EA0807A8
:100510000CFA0EFC4CEA070CC0F808C0D0F804C076
:100520000F792CEA060CC7F300179F4047EA0C0727
:1005300047600E79F643B60702D18E68012E0BD0C4
:10054000C6684FEA43088F6804FA08FC26EA0C06DE
:1005500007FA08F73743C7600E7906F00306022E44
:1005600012D1DE080F694FEA437C00EB8606B646DF
:10057000366A4FEADC6C0AFA0CF807FA0CF726EA3E
:1005800008063743CEF820700F7906684FEA430813
:1005900007F0030704FA08FC07FA08F726EA0C0636
:1005A000374307604E6816F4403F1CD04A4E376808
:1005B00047F00207376036689F0706F0020600968C
:1005C00023F0030606F1B046B6463F0FD6F808649E
:1005D000DFF808810AFA07FC404526EA0C0603D139
:1005E0004FF0000C41E06CE0DFF8F4C0604502D150
:1005F0004FF0010C39E0DFF8ECC0604502D14FF05C
:10060000020C32E0DFF8E0C0604502D14FF0030C8D
:100610002BE0DFF8D8C0604502D14FF0040C24E095
:10062000DFF8CCC0604502D14FF0050C1DE0DFF8CB
:10063000C4C0604502D14FF0060C16E0DFF8B8C028
:10064000604502D14FF0070C0FE0DFF8B0C0604505
:1006500002D14FF0080C08E0DFF8A4C0604502D1D9
:100660004FF0090C01E04FF00A0C0CFA07FC4CEAC1
:10067000060CCEF808C44F68DBF80060FF0226EADB
:10068000020600D516435F46CBF80060D1F804C0DF
:10069000DBF804605FEA8C2C26EA020600D51643DC
:1006A0007E606E684F6826EA0206BF0300D51643D7
:1006B0006E602E684F6826EA0206FF0300D51643D7
:1006C0002E605B1C0A6832FA03F67FF40DAFBDE8BA
:1006D000F88F000080000058F444025800000258CF
:1006E0000004025800080258000C0258001002587A
:1006F0000014025800180258001C0258002002582A
:10070000002402580AB1816170470904FBE7000028
:1007100001480068000C70470010005C01488068C8
:1007200070470000000000240248816802781144EC
:100730008160704700000024032010B500F02CFAFF
:1007400001F06AF80F4A104914681368C4F30322D1
:1007500003F00F038A5CC95C02F01F0201F01F0165
:10076000D0400A4A20FA01F11160094908600F20BF
:1007700000F010F808B1012010BD00F0DFF90020F2
:1007800010BD000018440258D026000810000024B4
:100790000C00002470B50D4D04462878A0B14FF42C
:1007A0007A71B1FBF0F00A490968B1FBF0F001F091
:1007B00090FB48B9102C07D200222146501E00F0B1
:1007C000CBF900206C6070BD012070BD00000024DA
:1007D0000C0000242DE9F041044690F8A0001646D4
:1007E0000F4601281DD0012584F8A050022084F86E
:1007F000A10006EB860000EBC600342204EB80006B
:100800003830FFF7BDFD32463946204601F075FB12
:10081000216800204D6284F8A15084F8A000BDE852
:10082000F0810220FBE72DE9F041040004D094F8A8
:10083000A100002518B107E00120BDE8F0812046A5
:1008400084F8A05000F050F8022084F8A10020683D
:100850000123816921F070418161D4E90010D4E95C
:1008600002722669384332438E69104330438861EF
:100870002268A08AA16941EA004191602268A08BA8
:10088000216A41EA0041D1602268A08CA16A41EA54
:10089000004111612268A08D216B41EA0041516144
:1008A000226894F8351094F83600D66A000406F0F1
:1008B0007F46D662226840EA012094F83460D16A0B
:1008C00031430143D1622068416B41F0060141632D
:1008D0002068816941F001018161C4F8A45084F865
:1008E000A1300020A9E700002DE9F041B6B0044690
:1008F00014216846FFF776FDC02106A8FFF772FDB8
:100900005E49206888427CD10DF140080021022513
:100910000C4601220423062688E82C007702CDE944
:10092000157140041791CDE90601CDE9135606A8CB
:1009300000F06EF908B1FFF7BAFD5148016841F0C7
:1009400008010160006800F0080005904C48001F95
:10095000016841F010010160016801F0100105918A
:10096000016841F020010160016801F0200105915A
:10097000016841F004010160016801F00401059182
:10098000016841F001010160016801F00101059178
:10099000016841F002010160016801F00201059166
:1009A000016841F008010160016801F0080105914A
:1009B000016841F04001016000680E26694600F0C0
:1009C000400005904DF670000090CDE901542D488F
:1009D000CDE90346FFF77CFD4FF480670097CDE932
:1009E000015429486946CDE90346FFF771FD40F2FD
:1009F000C1200090CDE9015424486946CDE9034661
:100A000000E038E0FFF764FD40F27E400090CDE961
:100A100001541F486946CDE90346FFF759FD0921F6
:100A2000DFF8708003200090CDE90154CDE9034147
:100A300069464046FFF74CFD4FF470600090CDE9E9
:100A40000154CDE9034669464046FFF741FD009752
:100A50006946CDE901541048CDE90346FFF738FD5A
:100A60004FF404500090CDE901540C486946CDE99B
:100A70000346FFF72DFD36B0BDE8F08100100050B1
:100A8000E4440258001002580014025800080258AA
:100A90000000025800040258000C025800180258C6
:100AA000154BF0B5083B427813491A600B680A1FD2
:100AB00023F001030B6043681360057BC67A827ADA
:100AC000437B2D07847B45EA0665C77B90F809C008
:100AD000067A90F800E045EAC24040EA834040EAE6
:100AE000444040EA074040EA0C2040EA460040EA21
:100AF0000E000860F0BD0000A0ED00E0BFF35F8FC6
:100B0000044800210368034A23F4803303607032F1
:100B10001160704724ED00E0074A40F001000649EB
:100B200070321060086840F480300860BFF34F8F67
:100B3000BFF36F8F7047000024ED00E0054808B553
:100B4000016841F002010160006800F002000090BD
:100B500008BD0000F44402580E4BF0B41B680D466B
:100B6000C3F30223C3F10706042E00D90426191D7E
:100B7000072901D2002300E0DB1E012404FA06F15C
:100B80009C40491E2940641E994014402143F0BCFA
:100B900001F059BD0CED00E0064900F0070210B568
:100BA0004FF6FF040868044B204040EA0220184337
:100BB000086010BD0CED00E00000FA05134970B5A7
:100BC0000A68D243520705D5096801F0070181423E
:100BD00013D118E00A6822F0070202430A60FFF707
:100BE0009DFD0A4D4FF47A760446083D07E000BFAC
:100BF000FFF794FD001BB04201D9012070BD2868A9
:100C0000C0438004F4D4002070BD00000C4802589A
:100C10002DE9FE4F0546DFF8E48350F8081B002459
:100C2000F64FC943019005F12800264608F1240833
:100C3000009008011DD4A86E50B1B0F5801F0CD0F3
:100C4000B0F5001F0ED0B0F5401F1ED001240FE0FC
:100C5000386840F40030386017E00198022101F054
:100C600003FB03E00098022101F08EFB04000CD08E
:100C700026462888C043C00523D4A86D05281ED267
:100C8000DFE800F00C11161B1B00AA6ED8F800104C
:100C900021F440111143C8F80010EAE7386840F425
:100CA0000030386009E00198002101F0DDFA03E02E
:100CB0000098002101F068FB044674B100E00124B3
:100CC00026462888C043800528D4E86D80281ED099
:100CD0000CDC90B140280ED114E0AA6DD8F80010B9
:100CE00021F007011143C8F80010EAE7C02813D02B
:100CF000B0F5807F10D001240FE0386840F4003058
:100D0000386009E00198002101F0AEFA03E0009894
:100D1000002101F039FB04469CB126462888DFF803
:100D2000DC92C04309F12C0940052CD4D5F8A80069
:100D3000B0F5800F20D00DDCA0B1B0F5001F0FD1B1
:100D400015E0EA6DD8F8001021F4E0711143C8F8FD
:100D50000010E3E7B0F5C00F13D0B0F5000F10D0CE
:100D600001240FE0386840F40030386009E0019851
:100D7000002101F079FA03E00098002101F004FB62
:100D800004467CB126462888C04300052DD4D5F8FA
:100D9000AC00B0F1007F21D00EDCA8B1B0F1807FB3
:100DA00010D116E0D5F8A820D9F8001021F4600180
:100DB0001143C9F80010E6E7B0F1407F13D0B0F15D
:100DC000806F10D001240FE0386840F400303860A4
:100DD00009E00198002101F047FA03E000980021A2
:100DE00001F0D2FA044674B126462868C043800157
:100DF0001FD4E86CD8B110280FD0202812D030288A
:100E000015D0012414E0D5F8AC20D9F8001021F059
:100E1000E0611143C9F80010E7E7386840F400309A
:100E2000386004E00198022101F01EFA044674B112
:100E300026462888C043C0042BD4286EB0F5005F36
:100E400020D00DDCA0B1B0F5805F0FD115E06B486C
:100E5000EA6C2030016821F0300111430160E8E7BD
:100E6000B0F5405F13D0B0F5804F10D001240FE0F3
:100E7000386840F40030386009E00198002101F042
:100E8000F3F903E00098002101F07EFA04468CB1EA
:100E900026462888C043800429D4686EB0F5403FB8
:100EA00023D010DC08B3B0F5803F14D0B0F5003F7C
:100EB0000FD115E02A6ED8F8001021F4E04111435B
:100EC000C8F80010E5E7B0F5802F0ED0B0F5A02FE0
:100ED0000BD001240AE00198012101F0C5F903E0DB
:100EE0000098012101F050FA044694B12646288862
:100EF000C04340042AD4D5F8B000B0F1405F23D0FD
:100F000010DC08B3B0F1805F14D0B0F1005F0FD1F6
:100F100015E06A6ED8F8001021F4E0211143C8F8FA
:100F20000010E4E7B0F1804F0ED0B0F1A04F0BD02D
:100F300001240AE00198012101F096F903E00098EC
:100F4000012101F021FA044674B126462888C043E5
:100F500000041FD4286FD8B1B0F1805F0ED0B0F17B
:100F6000005F10D0012414E0D5F8B020D9F80010AB
:100F700021F0E0411143C9F80010E7E7386840F478
:100F80000030386004E00198012101F06DF9044659
:100F900074B126462868C043C0011ED4A86CD0B1E5
:100FA00001280ED0022811D0032814D0012413E008
:100FB0002A6FD8F8001021F040511143C8F80010F2
:100FC000E8E7386840F40030386004E00198022116
:100FD00001F04AF90446ACB126462868DFF81CB097
:100FE000C043ABF11C0B400252D40548016841F4E8
:100FF00080710160FFF792FB824611E02C44025899
:1010000000480258FA48AA6C016821F00301114314
:101010000160E2E7FFF782FBA0EB0A00642835D805
:10102000F4480068C005F5D58CBBDFF8C4A3B5F85B
:10103000B4100AF1240ADAF8000001F4407100F457
:101040004070884211D0DAF80010DAF8002021F45C
:10105000407142F48032CAF80020DAF8002022F40D
:101060008032CAF80020CAF80010D5F8B400B0F5F4
:10107000807F1AD1FFF752FB029012E0FFF74EFB80
:101080000299411A41F2883081420AD90324264646
:101090002878DFF85CA3C0430AF1080AC00721D012
:1010A0003CE0DAF800008007E8D5D5F8B410C1F3C9
:1010B0000120032858460DD0016821F47C510160BD
:1010C000B5F8B420DAF80010C2F30B021143CAF8E5
:1010D0000010DDE7C84A036802EA111223F47C51CC
:1010E0001143ECE7E86F182816D005DCA0B10828FA
:1010F00008D0102804D10AE020280DD028280BD0D1
:1011000001240AE00198012101F0AEF803E0009803
:10111000012101F039F9044664B126462878C0431C
:1011200080071ED4A86F062819D2DFE800F0160C3D
:1011300011161616EA6FDAF8001021F03801114383
:10114000CAF80010EAE70198012101F08DF803E0E8
:101150000098012101F018F904467CB100E0012457
:1011600026462878C04340071FD4D5F894000628A7
:1011700019D2DFE800F0160C11161616AA6FDAF86D
:10118000001021F007011143CAF80010E9E70198A7
:10119000012101F069F803E00098012101F0F4F861
:1011A0000446A4B100E0012426462878C043800606
:1011B0002BD4D5F89000B0F1405F24D011DC10B3EF
:1011C000B0F1805F15D0B0F1005F10D116E0D5F816
:1011D0009420D9F8001021F007011143C9F800103C
:1011E000E3E7B0F1804F0ED0B0F1A04F0BD0012457
:1011F0000AE00198002101F037F803E0009802218D
:1012000001F0C2F8044694B126462878C04340064F
:101210002BD4D5F89C00B0F5406F24D011DC10B36E
:10122000B0F5806F15D0B0F5006F10D116E0D5F88D
:101230009020DAF8001021F0E0411143CAF80010C4
:10124000E3E7B0F5805F0ED0B0F5A05F0BD00124CE
:101250000AE00198002101F007F803E0009802215C
:1012600001F092F8044694B126462878C04300065F
:101270002BD4D5F8A000B0F5C04F24D011DC10B3AA
:10128000B0F5005F15D0B0F5804F10D116E0D5F85D
:101290009C20D9F8001021F4E0511143C9F8001046
:1012A000E3E7B0F5004F0ED0B0F5204F0BD001248E
:1012B0000AE00198002100F0D7FF03E00098022126
:1012C00001F062F8044654B126462878C04300076E
:1012D0001ED4D5F88400B0F5805F0AD00FE0D5F8B1
:1012E000A020D9F8001021F460411143C9F8001082
:1012F000EBE70098022101F047F800B10126D5F88C
:101300008420DAF8001021F440511143CAF800108B
:101310002878C043C00613D4D5F89800B0F5807F74
:1013200005D10098022101F02FF800B10126D5F86F
:101330009820D9F8001021F440711143C9F8001029
:101340002868C043000316D4D5F8A40038B1B0F51E
:10135000803F09D0B0F5003F0BD001240AE001988E
:10136000002100F081FF03E00098022101F00CF859
:1013700004468CB126462868C043400322D4D5F8E1
:101380008800B0F5801F11D0B0F5001F13D0B0F564
:10139000401F15D0012414E0D5F8A420D9F800107E
:1013A00021F440311143C9F80010E4E7386840F4F3
:1013B0000030386004E00098012100F0E5FF0446A9
:1013C0005CB126462868C043C00323D4286DA8B169
:1013D000B0F5803F17D001241BE0D5F88820DAF85B
:1013E000001021F440111143CAF80010EAE7000090
:1013F0004C44025800480258CFFFFF00386840F4C0
:101400000030386004E00198022100F02DFF04460E
:10141000E4B126462868C043800005D40098022124
:1014200000F0B2FF00B101262868C04380031BD43E
:10143000D5F88000B0B1B0F5807F0FD0B0F5007F57
:1014400010D0B0F5407F0DD001240CE05A482A6D31
:10145000016821F4803111430160DBE7386840F412
:1014600000303860ECB326462868C043C00207D479
:101470006A6FD8F8001021F000411143C8F800103D
:101480002868C043C00008D4D5F8B820DBF80010A5
:1014900021F480411143CBF800102868C04380023A
:1014A00007D4EA6ED8F8001021F080711143C8F813
:1014B00000102868C04340000CD4DBF8001021F471
:1014C0000041CBF80010DBF80010D5F8BC20114328
:1014D000CBF800102868C04308D437486A6D01680B
:1014E00000E018E021F04051114301602868C0433A
:1014F000000208D4D5F88C20DAF8001021F440015D
:101500001143CAF8001028790024C04300F00100FC
:1015100020430AD00FE0D5F88020DAF8001021F43B
:1015200040711143CAF800109EE70198002100F0B5
:101530009BFE00B106462879C04300F0020020431C
:1015400005D10198012100F08FFE00B106462879EF
:10155000C04300F00400204305D10198022100F0AF
:1015600083FE00B106462879C04300F008002043FE
:1015700005D10098002100F007FF00B10646287948
:10158000C04300F01000204305D10098012100F075
:10159000FBFE00B106462879C04300F0200004435A
:1015A00004D10098022100F0EFFE00B916B101202D
:1015B000BDE8FE8F0020FBE74C4402582DE9F05FA8
:1015C00004000F467ED0DFF83882D8F8000000F023
:1015D0000F00B8420CD2D8F8001021F00F013943A7
:1015E000C8F80010D8F8000000F00F00B84269D128
:1015F0002078844D40070AD52069296801F07001E0
:10160000884204D9296821F07001014329602078BB
:101610007C4E361D00070AD56069316801F0700103
:10162000884204D9316821F070010143316020788B
:10163000C0060AD5A069316801F4E061884204D986
:10164000316821F4E061014331602078DFF8B4B102
:1016500080060BF1080B0CD5E1695846DBF8002039
:1016600002F07002914204D9026822F070020A432B
:101670000260207880070AD5E068296801F00F0130
:10168000884204D9296821F00F010143296020789C
:10169000C0073ED05B49A2682868183920F4706002
:1016A000104328606068022818D0032819D0096800
:1016B000012819D0490700294ADADFF848A1AAF120
:1016C000080A00E044E0DAF8002022F007020243B2
:1016D000CAF80020FFF722F8814612E00968890362
:1016E000E9E709688901E6E7C905E4E7FFF716F8C5
:1016F000A0EB090141F28830814202D90320BDE804
:10170000F09F6168DAF8000000F03800B0EBC10F1C
:10171000ECD1207880070AD5E068296801F00F0134
:10172000884204D2296821F00F0101432960D8F8CA
:101730000010404601F00F01B9420BD9016821F0B9
:101740000F0139430160006800F00F00B84201D07A
:101750000120D4E7207840070AD52069296801F0E4
:101760007001884204D2296821F070010143296088
:10177000207800070AD56069316801F0700188425D
:1017800004D2316821F07001014331602078C00635
:101790000AD5A069316801F4E061884204D2316859
:1017A00021F4E06101433160207880060CD5E169C5
:1017B0005846DBF8002002F07002914204D2026821
:1017C00022F070020A43026000F026F80E492A68EF
:1017D0002B68C2F3032203F00F038A5CC95C02F09A
:1017E0001F0201F01F01D040084A20FA01F11160E8
:1017F0000749086007480068BDE8F05FFEF7CABF08
:101800000020005218440258D0260008100000247E
:101810000C00002404000024454970B545480968BF
:10182000434B103B11F0380208D00111082A03D0B5
:10183000102A0BD0182A0BD0084670BD19688906EB
:10184000FBD51968C1F3C101C84070BD3A4870BDED
:101850003749374D18310C1D24350A680968266848
:101860002D6802F0030406F00102C1F30511C5F36F
:10187000CC0515FB02F200EE102AB8EE400AE9B3DF
:101880002F4ADFED2E0AB7EE001A6CB1DFED2D1AEC
:10189000012C01D0022C43D002EE101A1068F8EE91
:1018A000422A81EEA22A1EE01C68A40611D51B68FC
:1018B00001EE901A1168C3F3C103F8EE612AD84013
:1018C00001EE900AC1F30800F8EE611A81EEA22A37
:1018D0000BE001EE901ADFED1C2A00BFF8EE611A52
:1018E000106882EEA12AC0F3080001EE900AF8EE1B
:1018F000611A40EE201A31EE810A00E015E022EE76
:10190000000A1068C0F34620401C00EE900AF8EE72
:10191000600A80EE201ABCEEC10A10EE100A70BDFB
:1019200001EE901ADFED092AD8E7002070BD000013
:10193000104402580090D00340787D010000003927
:10194000304402580024744A0024744C20BCBE4B1E
:101950002DE9F05F04007DD0FF4F2078FE4D183751
:10196000DFF8F493103DC00748D0D9F8000039687B
:1019700000F03800102815D0182803D101F003001A
:1019800002280FD06068B0F5803F12D010B1B0F5DA
:10199000A02F18D0286820F480302860286820F410
:1019A000802009E02868800328D560680028D2D00C
:1019B00024E0286840F480302860606888B1FEF731
:1019C000ADFE064609E0286840F480202860F0E774
:1019D000FEF7A4FE801B64286FD828688003F7D523
:1019E0000CE0FEF79BFE064605E000BFFEF796FE04
:1019F000801B6428F0D828688003F7D4207841F24F
:101A00000308D54E0C3E800769D5D9F80000396827
:101A100010F038000ED0182801D188070AD0E068ED
:101A200090B3296821F0190101432960FEF776FE81
:101A3000824631E02868400702D5E06800288AD055
:101A4000E168286820F0190008432860FEF766FE68
:101A5000824607E0DFE000BFFEF760FEA0EB0A0071
:101A60000228B9D828684007F6D500BFFEF750FE17
:101A700040451BD82069402812D0316821F47C31C0
:101A800041EA003030602AE018E000BFFEF746FE71
:101A9000A0EB0A0002289FD828684007F6D5E5E7A2
:101AA000306820F47C3040F40030EBE7207C316873
:101AB00021F0FE4141EA0060E4E70DE1286820F0F2
:101AC00001002860FEF72AFE824605E0FEF726FEAA
:101AD000A0EB0A0002288DD828684007F6D42078A9
:101AE000C0065DD5D9F80000DFF86CB2396800F0A7
:101AF0003800ABF1040B082810D0182803D101F0EE
:101B0000030001280AD0E0690028286838D040F096
:101B100080002860FEF702FE824623E02868C005A8
:101B200023D5E069802876D11FE0206A202821D0C3
:101B3000316821F0F84141EA8060306030E000BF58
:101B400094F82010DBF8002022F07C5242EA016178
:101B5000CBF8001024E000BFFEF7E0FDA0EB0A0088
:101B6000022898D82868C005F6D5FEF7D1FD404573
:101B7000E6D8DAE7306820F0F84040F08040DCE753
:101B800020F080002860FEF7C9FD064605E000BF92
:101B9000FEF7C4FD801B02289DD82868C005F7D435
:101BA0002078000729D56C48616964300029804697
:101BB000016811D041F001010160FEF7AFFD06465A
:101BC00005E000BFFEF7AAFD801B0228C9D8D8F89F
:101BD00000008007F6D510E021F001010160FEF75A
:101BE0009DFD064605E000BFFEF798FD801B02281C
:101BF00072D8D8F800008007F6D42078800623D564
:101C0000A0690028286810D040F480502860FEF7B2
:101C100085FD064605E036E1FEF780FD801B0228C3
:101C20005AD828688004F7D50EE020F48050286048
:101C3000FEF774FD064604E0FEF770FD801B0228E7
:101C40004AD828688004F7D4207840074FD5DFF8B9
:101C50000C81D8F8001041F48071C8F80010FEF72C
:101C60005DFD064605E000BFFEF758FD801B6428B9
:101C700032D8D8F80000C005F6D5374EA0686036D7
:101C800001280AD008B1052813D0306820F00100DF
:101C90003060306820F0040002E0306840F001005D
:101CA0003060A06841F2883A90B1FEF737FD804677
:101CB0000AE0306840F004003060EEE7FEF72EFDE9
:101CC000A0EB0801514507D830688007F6D50EE033
:101CD000FEF724FD804607E084E000BFFEF71EFD0E
:101CE000A0EB080151457DD830688007F6D4606AC2
:101CF000B0B3DFF86480D9F8001008F120084FF67F
:101D0000F87B08F10409C1F3C2010329A8F1040A10
:101D100069D00228286820F08070286003D0FEF780
:101D2000FDFC044684E0FEF7F9FC064605E000BF32
:101D3000FEF7F4FC801B022877D828688001F7D4CE
:101D4000E26A40F2F331386854F8283F884340EAA9
:101D500002101843386004E010440258004802584A
:101D6000B5E0217B434622894FF4FE0C208A4FF0D8
:101D7000FE474902267D521E401EA1F50071C2F3A6
:101D800008088AB2761E0CEA004042EA08020243C2
:101D9000504607EA06610A431A60DAF8002022F08A
:101DA0000102CAF80020D9F80020266A22EA0B02B4
:101DB00042EAC602C9F80020DAF80010A26921F050
:101DC0000C011143CAF800100168E26921F0020118
:101DD00011430160016841F480310160016841F400
:101DE000003101E021E027E00160016841F4802139
:101DF0000160016841F001010160286840F08070D5
:101E00002860FEF78BFC044605E000BFFEF786FC69
:101E1000001B022809D828688001F7D557E000BFC9
:101E2000FEF77CFC001B022802D90320BDE8F09FCE
:101E300028688001F4D44AE039680128D8F8000005
:101E400021D0A26A01F0030393421CD1E26AC1F3DC
:101E500005118A4217D1216BC0F30802491E8A423C
:101E600011D1616BC0F34622491E91420BD1A16B87
:101E7000C0F30642491E914205D1E16BC0F30660F2
:101E8000491E814201D00120D0E7A16C4E46D9F80D
:101E90000000C0F3CC00814219D0DAF800005546AA
:101EA00020F00100CAF80000FEF738FC4FEA0007F6
:101EB000FEF734FCB842FBD0A26C306820EA0B007D
:101EC00040EAC2003060286840F00100286000202D
:101ED000ACE7401EB0F1807F10B501D3012010BDEA
:101EE0004FF0E02460610F21601700F0ACFB002090
:101EF000A0610721216110BDFEE72DE9FC4F82465C
:101F00008D88894693468820DAF800108C2300EBF0
:101F1000CB149422A646C868C0F30B4028440D5940
:101F2000040403EBCB1005F47045CDE9000441F83F
:101F30000E509C23D9F8004003EBCB164FF0AC0CAD
:101F4000982340F2077702EBCB11A02503EBCB12CD
:101F500005EBCB13DAF800500CEBCB1CD5F80C805A
:101F6000C8F30B4808F10108A044019C48EA0408A2
:101F700045F80E80DAF80040B9F80C50D4F80C801F
:101F80002058C8F30A08454400F47048009844F803
:101F90000080DAF80040D9F80800D4F80C80C8F3C3
:101FA0000A0808F101088044009848EA054844F806
:101FB0000080DAF80000445824F007044450DAF8AE
:101FC0000040D9F81000605099F8310099F81810C5
:101FD000040299F83200000440EA016099F83010D8
:101FE00021430143DAF800008151DAF800008158FA
:101FF00021F0FF018150DAF80000D9F81410815067
:10200000DAF80000C158B943C150DAF80010D9E934
:1020100007021043C850DAF80010D9F8240041F83C
:102020000C00D9F81000C8B301283AD004283AD0DF
:10203000022838D0032836D0072834D00120DAF817
:102040000030B02505EBCB11B42284245D5802EB9F
:10205000CB1205F0E0255D50D9E9003504EBCB1437
:10206000EB1AB9F8285043434543DAF80000DB1D6A
:1020700043EA05434350DAF8000081586FF30A0140
:102080008150DAF80000D9F82C108150DAF80000FD
:10209000015941F001010151BDE8FC8FFFE7042027
:1020A000CDE70320CBE70220C9E7000070B586B07A
:1020B00014216846FEF796F93048016841F0100196
:1020C0000160016801F010010591016841F004010F
:1020D0000160016801F004010591016841F02001EF
:1020E0000160016801F020010591016841F00101E2
:1020F0000160016801F001010591016841F00201F0
:102100000160016801F002010591016841F00801D8
:102110000160016801F008010591016841F040018A
:10212000016000684FF48145154E002200F0400028
:10213000294605903046FEF7E5FA002469464FF43B
:1021400000500294CDE900040E48FEF7C1F90120C9
:102150000095CDE90104694630460394FEF7B8F9CD
:1021600002214FF4407007228DE8130006486946AB
:10217000CDE90342FEF7ACF906B070BDE044025869
:102180000004025800080258000C0258F0B59BB039
:1021900034216846FEF726F934210DA8FEF722F90E
:1021A0002E4800242C4B0525072140F28E260322C1
:1021B00040F2E51703600E2344604FF4257C8460F1
:1021C00040F2E71EC4600461143080E8EE5080F8ED
:1021D000204080F8214080F822401438FEF723FB8D
:1021E00008B172B6FEE74FF48066019402940022B3
:1021F00000946946CDE906468DF830400394049476
:1022000005948DF831401548CDE908540A940B9493
:102210008DF83240FEF7DEFA08B172B6FEE70D9493
:1022200001220E940DA90F94109411941294CDE9EB
:102230001346CDE915548DF864408DF86540074884
:10224000179418948DF86640FEF7C4FA002801D060
:1022500072B6FEE71BB0F0BD001000501400002461
:10226000FEE7FEE7704700002DE9F047454D0446C4
:1022700089464FF0000A2868C04380070AD0414EC3
:10228000283E306820F080603060FEF747FA07464D
:10229000B04608E00120BDE8F08700BFFEF73EFA37
:1022A000C01B022867D8D8F800000001F6D42068C7
:1022B00029684FF4FE0721F47C313E0241EA0030E8
:1022C0002860207AA389B4F804C040022D4D2D491E
:1022D0005B1E227CACF1010C1035091DA0F50070CD
:1022E00080B2521ECCF3080C07EA034340EA0C000C
:1022F000184306EA0262104328600868626920F009
:10230000C000104308600A68A06922F0200202435E
:102310000A60281D0A6822F010020A6002684FF65F
:10232000F873E4699A4342EAC40202600868B9F1AA
:10233000000F40F010020A6011D00868B9F1010FD7
:1023400011D040F400100860D8F80000444640F076
:102350008060C8F80000FEF7E1F905460DE0086866
:1023600040F40020EFE740F48010ECE7FEF7D6F9E8
:10237000401B022801D903208DE720680001F5D514
:10238000504688E7284402582DE9F047454D044659
:1023900089464FF0000A2868C04380070AD0414EA2
:1023A000283E306820F080503060FEF7B7F90746CD
:1023B000B04608E00120BDE8F08700BFFEF7AEF9A7
:1023C000C01B022867D8D8F800008000F6D4208807
:1023D00029684FF4FE0721F07C713E0241EA00506B
:1023E0002860207AA389B4F804C040022D4D2D49FD
:1023F0005B1E227CACF1010C1835091DA0F50070A4
:1024000080B2521ECCF3080C07EA034340EA0C00EA
:10241000184306EA0262104328600868626920F4E3
:102420004060104308600A68A06922F40072024309
:102430000A60281D0A6822F480720A6002684FF65A
:10244000F873E4699A4342EAC40202600868B9F189
:10245000000F40F480720A6011D00868B9F1010FD2
:1024600011D040F080700860D8F80000444640F079
:102470008050C8F80000FEF751F905460DE00868E5
:1024800040F48000EFE740F40000ECE7FEF746F987
:10249000401B022801D903208DE720688000F5D574
:1024A000504688E7284402587047FEF73DB90000BF
:1024B00030B59DB04C216846FDF794FF202113A84C
:1024C000FDF790FF0220FEF779FB1D490A681D48C1
:1024D00022F001020A600968016821F4404141F4D8
:1024E000804101600168002401F440411B910168B2
:1024F0008904FCD51448056802210122402325F0F7
:1025000003050560099468460091CDE90323FFF7B0
:102510001FFA08B172B6FEE73F20CDE91304159407
:10252000012113A816941794189419941A94FFF77C
:1025300045F8002801D072B6FEE71DB030BD00009E
:102540002C04005818480258284402583348F0B563
:10255000334A016841F470010160106800F00F0017
:10256000072804D2106820F00F00C01D10602D490C
:1025700000202C4C10340B682B4D43F001030B60F2
:1025800020600B682B400B60136803F00F03072BD0
:1025900004D9136823F00F03DB1D1360214C234A79
:1025A0001834234B261D371D20601E4C214D283426
:1025B0003060261D3860371D23603B1D35601C1DB3
:1025C0003A60251D2E1D1860331D22602860326080
:1025D00018600A68134B184C22F4802260330A609A
:1025E000186020686FF30F00B0F1005F03D2134949
:1025F0000120C1F808010B48D4300168C9040BD48C
:10260000026843F2D2010E4B42F48052026019601C
:10261000016821F480510160F0BD000088ED00E008
:1026200000200052004402587FEDF6EA80020101CA
:10263000000202020000FF010010005C0080005157
:1026400000400052FEE7090700284FEA116104DB51
:1026500000F1E02080F80014704700F00F0000F156
:10266000E02080F8141D70471FB5002400940194E9
:1026700002940394FEF742FA01208DF80C001F210A
:102680008DF8081087228DF809208DF80D008DF83F
:10269000000068468DF80A408DF80E408DF8014024
:1026A00001948DF80B408DF80F40FEF7F9F90420E6
:1026B000FEF732FAFEF740F8FFF7FAFEFFF7F6FCF6
:1026C000FFF764FDFEE74FF04070E1EE100A70473F
:1026D00000000000010203040102030406070809C8
:1026E000002700080000002414000000D4020008A5
:1026F00014270008140000240C070000F002000852
:102700000100000010000000000000000090D00355
:042710000090D00362
:040000050800029954
:00000001FF
