:020000040800F2
:10000000C00400206D220008852200088722000815
:10001000892200088B2200088D22000800000000C1
:100020000000000000000000000000008F22000817
:100030009122000800000000932200089522000889
:10004000BD220008C1220008C5220008C9220008FC
:10005000CD220008D1220008D5220008D9220008AC
:10006000DD220008E1220008E5220008E92200085C
:10007000ED220008F1220008F5220008F92200080C
:10008000FD220008012300080523000809230008B9
:100090000D23000811230008152300081923000868
:1000A0001D23000821230008252300082923000818
:1000B0002D230008312300083523000839230008C8
:1000C0003D23000841230008452300084923000878
:1000D0004D23000851230008552300085923000828
:1000E0005D2300086123000800000000652300086C
:1000F000692300086D230008712300087523000898
:10010000792300087D230008812300088523000847
:10011000892300088D2300089123000895230008F7
:10012000992300089D230008A1230008A5230008A7
:10013000A9230008AD230008B1230008B523000857
:1001400000000000000000000000000000000000AF
:10015000B9230008BD230008C1230008C5230008F7
:10016000C9230008CD230008D1230008D5230008A7
:10017000D9230008DD230008E12300080000000067
:10018000E5230008E9230008ED230008F123000817
:10019000F5230008F9230008FD23000801240008C6
:1001A00005240008092400080D2400081124000873
:1001B00015240008192400081D2400082124000823
:1001C00025240008292400082D24000831240008D3
:1001D00035240008392400083D2400084124000883
:1001E00045240008492400084D2400085124000833
:1001F00055240008592400085D24000861240008E3
:1002000065240008692400086D2400087124000892
:1002100075240008792400087D2400088124000842
:1002200085240008892400088D24000800000000AF
:10023000912400089524000800000000992400087B
:100240009D240008A1240008A5240008A924000872
:10025000AD240008B1240008B5240008B924000822
:10026000BD240008C1240008C5240008C9240008D2
:10027000CD240008D1240008D52400080000000087
:10028000D9240008DD240008E12400080000000053
:1002900000000000E52400082DE9F0470646002490
:1002A000D6E900010201A046DFF8D05722D5B36E8F
:1002B0004BB1B3F5801F0BD0B3F5001F15D0B3F5CC
:1002C000401F09D014E0EA6942F40032EA6105E017
:1002D000022100F0CEFB044620000AD1296CB06E4A
:1002E00021F440110143296404E000F0BCFBF2E773
:1002F0000124A046D6E90001C3051CD5B26D042A2D
:1003000017D8DFE802F0030E1205050000F0A1FB8C
:1003100020000FD1296CB06DC90840EAC1012964E1
:1003200009E000F0A5FB0446F2E7002100F097FB8E
:10033000F9E70124A046D6E90001830520D5F26D36
:100340004AB1402A12D0802A14D0C02A18BFB2F570
:10035000807F02D012E000F07CFB20000FD1296CDE
:10036000F06D21F4E0710143296409E000F080FBA5
:100370000446F2E7002100F072FBF9E70124A046F1
:10038000D6E90001430506F1840723D57A6A62B1F4
:10039000B2F5001F14D0B2F5800F15D0B2F5C00F22
:1003A00018BFB2F5000F02D012E000F052FB20009F
:1003B0000FD1A96C786A21F460010143A96409E0B6
:1003C00000F056FB0446F2E7002100F048FBF9E795
:1003D0000124A046D6E90001030523D5BA6A62B11B
:1003E000B2F1807F14D0B2F1007F15D0B2F1407F1E
:1003F00018BFB2F1806F02D012E000F02AFB20009B
:100400000FD1A96CB86A21F0E0610143A96409E049
:1004100000F02EFB0446F2E7002100F020FBF9E794
:100420000124A046D6E9000183011AD5F26C42B13D
:10043000102A04D0202A0DD0302A02D00FE000F07C
:1004400008FB20000CD1E96BF06C21F03001014376
:10045000E96306E0022100F00CFB0446F1E7012409
:10046000A046D6E90001C20423D5336E63B1B3F5CB
:10047000805F14D0B3F5005F15D0B3F5405F18BFAF
:10048000B3F5804F02D012E000F0E3FA20000FD164
:10049000296C306E21F4E0410143296409E000F049
:1004A000E7FA0446F2E7002100F0D9FAF9E701245F
:1004B000A046D6E90001830422D5726E92B1B2F54E
:1004C000803F0BD0B2F5003F15D0B2F5403F1CBFC6
:1004D000B2F5802FB2F5A02F04D00FE0012100F07B
:1004E000C8FA044620000AD1296C706E21F4E0217C
:1004F0000143296404E000F0B1FAF2E70124A046C8
:10050000D6E90001430422D5FA6A92B1B2F1805FC4
:100510000BD0B2F1005F15D0B2F1405F1CBFB2F159
:10052000804FB2F1A04F04D00FE0012100F0A1FAFA
:10053000044620000AD1A96CF86A21F0E041014389
:10054000A96404E000F08AFAF2E70124A046D6E9A3
:10055000000103041AD5326F42B1B2F1805F03D0BB
:10056000B2F1005F0BD00FE000F073FA20000CD165
:10057000296C306F21F040510143296406E00121CC
:1005800000F077FA0446F1E70124A046D6E900011D
:10059000C30118D5B26C032A13D8DFE802F00402B5
:1005A0000D0400F056FA20000CD1E96BB06C8908FC
:1005B00040EA8101E96306E0022100F05AFA0446AC
:1005C000F1E70124A046D6E9000143023FD5DFF858
:1005D000B094D9F8002042F48072C9F8002000F0ED
:1005E0002FFB8246D9F80010C80506D400F028FB7E
:1005F000A0EB0A006528F5D327E0200026D1296E5C
:10060000386B01F4407100F4407081420BD0286EC9
:100610002A6E42F480322A66296E20F4407021F45A
:10062000803129662866386BB0F5807F2BD100F0C9
:1006300007FB8146296E880725D400F001FBA0EB5B
:10064000090041F289318842F4D30324A04632786C
:10065000D10738D5F06F68B1082807D010282DD001
:1006600018281CBF2028282804D02AE0012100F0E7
:1006700000FA0446200025D1696CF06F21F03801A2
:10068000014369641FE0386B00F44071B1F5407FAD
:1006900009D12A68DFF8EC1301EA101122F47C5228
:1006A0000A432A6003E02B6823F47C532B60286EF6
:1006B000396BC1F30B0108432866C8E700F0CEF997
:1006C000D7E70124A0463278910719D5B06F0528E5
:1006D00014D8DFE800F0070310070707012100F036
:1006E000C8F9044620000AD1696CB06FC90840EA15
:1006F000C101696404E000F0B1F9F2E70124A04609
:1007000031784A0719D53869052814D8DFE800F090
:10071000070310070707012100F0ABF9044620008A
:100720000AD1A96C3869C90840EAC101A96404E08A
:1007300000F094F9F2E70124A04631788A0621D529
:10074000F86888B1B0F1805F0BD0B0F1005F14D0D1
:10075000B0F1405F1CBFB0F1804FB0F1A04F03D0AB
:100760000EE000F085F9044620000AD1696CF868B3
:1007700021F0E0410143696404E000F074F9F2E71C
:100780000124A04631784A0621D5B86988B1B0F570
:10079000806F0BD0B0F5006F14D0B0F5406F1CBF68
:1007A000B0F5805FB0F5A05F03D00EE000F060F917
:1007B000044620000AD1A96CB86921F4E051014334
:1007C000A96404E000F04FF9F2E70124A046317873
:1007D0000A0621D5F86988B1B0F5005F0BD0B0F5F5
:1007E000804F14D0B0F5C04F1CBFB0F5004FB0F52E
:1007F000204F03D00EE000F03BF9044620000AD160
:10080000A96CF86921F460410143A96404E000F097
:100810002AF9F2E70124A04631780A070ED5386894
:10082000B0F5805F04D100F01EF908B14FF0010867
:10083000696C386821F44051014369643278D1060B
:100840000ED57869B0F5807F04D100F00CF908B1BD
:100850004FF00108A86C7A6920F440701043A86436
:10086000D6E90001030319D53A6A32B1B2F5803FE7
:100870000FD0B2F5003F03D00EE000F0F9F80446C7
:1008800020000AD1A96C386A21F440310143A964DF
:1008900004E000F0E8F8F2E70124A046D6E9000100
:1008A00043031BD57A68B2F5801F06D0B2F5001F4E
:1008B0000ED0B2F5401F02D00EE000F0CAF82000C2
:1008C0000BD1696C786821F440110143696405E03B
:1008D00000F0C4F80446F2E70124A046D6E900017E
:1008E000C20317D5336D1BB1B3F5803F0BD00FE0BA
:1008F00000F0AFF820000CD1E96B306D21F48031AD
:100900000143E96306E0022100F0B3F80446F1E791
:100910000124A046D6E90001820004D500F0A3F826
:1009200008B14FF00108D6E9000182031CD5D6F8C2
:1009300080306BB1B3F5807F06D0B3F5007F18BF70
:10094000B3F5407F04D00DE0EA6942F40032EA6179
:10095000220008D16B6CD6F8802023F44073134337
:100960006B6401E00124A046C20205D52B6C726FB6
:1009700023F0004313432B64C40005D52B687A6B26
:1009800023F4804313432B60840205D52B6CF26E55
:1009900023F0807313432B64420007D52C6824F4A2
:1009A00000442C602B68BA6B13432B60002805D5DC
:1009B000EB6B726D23F040531343EB63040205D5D8
:1009C0006B6CBA6823F4400313436B6411F00101AC
:1009D00004D000F04DF8010018BF8046D6E90001B0
:1009E00011F0020305D0012100F043F8010018BF07
:1009F0008046D6E9000111F0040305D0022100F081
:100A000038F8010018BF8046D6E9000111F008034C
:100A100005D0002100F023F8010018BF8046D6E978
:100A2000000111F0100304D000F018F8010018BF05
:100A30008046D6E9002313F0200102D000F013F81D
:100A400020B9B8F1000F08BF002000D00120BDE898
:100A5000F087E86940F40030E8617047012106F151
:100A6000280000F067B8022106F1280000F062B803
:100A7000002106F1080000F007B8000010440258F9
:100A800000480258CFFFFF00F8B500F0AFF801D1E1
:100A90000120F2BD306820F0806000F0AFF807461A
:100AA0003168080106D500F0CBF8C01B0328F7D346
:100AB0000320F2BDB06A296820F47C3040EA01309E
:100AC00000F09FF8B063F16A686921F0C00100F09E
:100AD000B0F8A86921F0200100F0ABF821F0100176
:100AE000F162F06B00F07CF8F063F06A40F0100007
:100AF000F0621CB9F06A40F4002004E0012C04D13B
:100B0000F06A40F48010F06203E0F16A41F40011F1
:100B1000F162306840F0806000F070F8044631689F
:100B2000080105D400F08CF8001B0328F7D3BFE7B9
:100B30000020F2BDF8B500F059F801D10120F2BD56
:100B4000306820F0805000F059F80746316888007E
:100B500006D500F075F8C01B0328F7D30320F2BDBB
:100B6000B06A296820F07C7040EA015000F049F832
:100B70003064F16A686921F4406100F05AF8A869AC
:100B800021F4007100F055F821F48071F162706C6D
:100B900000F026F87064F06A40F48070F0621CB9CE
:100BA000F06A40F4800004E0012C04D1F06A40F4C3
:100BB0000000F06203E0F16A41F08071F162306898
:100BC00040F0805000F01AF804463168880005D4DF
:100BD00000F036F8001B0328F7D3BFE70020F2BD72
:100BE000E9696FF3CF0040EAC10070470546134E34
:100BF000B06A0C4600F0030003287047306000F034
:100C00001FB8B062A9686868EA68491E4902401EB8
:100C1000C0F30800521E01F47E4112040843296902
:100C200002F4FE021043491E090601F0FE4108438A
:100C300070470143F162F16A7047000000440258B6
:100C400001484068704700BF000000202DE9F041D6
:100C500004002CD02178DFF80855C80711D5286981
:100C6000A96A00F03800102805D0182804BF01F048
:100C70000301022930D12A68910302D56068002857
:100C800015D0217841F20406880770D52869A96A31
:100C9000202700F0380028B1182808BF11F0030FF2
:100CA00040F0AE80E0682A68510702D5002800F0C5
:100CB00036822A6822F0190210432860FFF7C0FF2D
:100CC00080462968480747D4FFF7BAFFA0EB080021
:100CD0000328F6D3032040E26068B0F5803F03D1DB
:100CE000286840F4803007E040B9296821F4803159
:100CF0002960286820F48020286013E0B0F5A02F38
:100D000008D1296841F4802129602A6842F48032A0
:100D10002A6007E0286820F480302860296821F4E0
:100D200080212960606858B1FFF78AFF064629686C
:100D30008803A6D4FFF784FF801B6528F7D3C9E793
:100D4000FFF77EFF0646296888039AD5FFF778FFEC
:100D5000801B6528F7D3BDE700F02FFAB04248D2D8
:100D6000206940283ED1686867F3113068602178B7
:100D7000C8061ED528691027A96A00F0380008287F
:100D800005D0182804BF01F00301012973D12A6896
:100D9000D10503D5E069802840F0C18100F00DFA4B
:100DA000B04260D2206A202856D1686867F39E60FE
:100DB00068602278110740F199806069002800F08E
:100DC0008580696F41F001016967FFF739FF0646C9
:100DD000696F880700F18A80FFF732FF801B0328C4
:100DE000F6D377E7696821F47C3141EA0031696024
:100DF000BDE76968206921F0FE4141EA0061F6E73C
:100E0000E068C8B1296821F0190108432860FFF79C
:100E100017FF80462868410706D4FFF711FFA0EBB3
:100E200008000328F6D355E700F0C7F9B042E0D236
:100E300020694028D6D196E72A68520852002A60D5
:100E4000FFF7FEFE07462968480790D5FFF7F8FE32
:100E5000C01B0328F7D33DE7696821F0F84141EA58
:100E600080616960A5E7E868216A20F07C5040EA6B
:100E70000160E8609DE7E0692A68002817D042F029
:100E800080022A60FFF7DCFE80462968C80506D488
:100E9000FFF7D6FEA0EB08000328F6D31AE700F010
:100EA0008CF9B042DFD2206A2028D5D17DE722F02C
:100EB00080022A60FFF7C4FE06462868C105D9D51E
:100EC000FFF7BEFE801B0328F7D303E7686F4008D7
:100ED00040006867FFF7B4FE0646686F810705D5D6
:100EE000FFF7AEFE801B0328F7D3F3E621788A06CE
:100EF00021D5A06978B12A6842F480522A60FFF7B0
:100F00009FFE06462968880415D4FFF799FE801BCA
:100F10000328F7D3DEE6296821F480512960FFF722
:100F20008FFE06462868810405D5FFF789FE801BE1
:100F30000328F7D3CEE62278510748D5894E30688A
:100F400040F480703060FFF77BFE07463168C805CB
:100F500005D4FFF775FEC01B6528F7D3BAE6A06875
:100F6000012804D1286F40F00100286713E008B978
:100F7000286F09E00528286F06D140F00400286793
:100F8000296F41F0010105E0400840002867296F02
:100F900021F004012967A06841F2893658B1FFF7B2
:100FA0004FFE0746296F880711D4FFF749FEC01B83
:100FB000B042F7D38EE6FFF743FE0746296F880756
:100FC00005D5FFF73DFEC01BB042F7D382E6606A4D
:100FD000002800F0C1802969634E01F0380118290A
:100FE00077D0022865D1296821F080712960FFF748
:100FF00027FE07462868810105D5FFF721FEC01BA3
:101000000328F7D366E6AB6AA16A5848E26A034050
:101010000B4343EA0213AB62616B206BA26B491E68
:101020004902401EC0F30800521E01F47E41120422
:101030000843E16B02F4FE021043491E090601F069
:10104000FE4108432863E86A40084000E862696B93
:10105000A06C0E4046EAC0066E63E96A206C21F07F
:101060000C010143E962E96A606C21F0020101436D
:10107000E962E96A41F48031E962E86A40F40030EB
:10108000E862E96A41F48021E962E86A40F001001F
:10109000E862296841F080712960FFF7D1FD0446BC
:1010A0002868810158D4FFF7CBFD001B0328F7D334
:1010B00010E6286820F080702860FFF7C1FD044624
:1010C0002968880148D5FFF7BBFD001B0328F7D32B
:1010D00000E60128A96A2A6B21D0A36A01F0030067
:1010E000984202BFC1F30510E16A884217D1206B14
:1010F000C2F308035B1C834201BFC2F34621491CB3
:10110000606B81420BD1A16BC2F30640401C884248
:1011100001BFC2F30661491CE06B814201D001208E
:101120001BE0696BA06CC1F3CC01884214D0E96A62
:1011300049084900E962FFF783FD0746FFF780FD94
:10114000C01BFBD0686BA16C064046EAC1066E630B
:10115000E86A40F00100E8620020BDE8F08100BFCD
:1011600000440258004802580700FFFF0CFCFFFF34
:1011700038B5032000F03DF800F0CAF91149124AD1
:101180000C68C4F30323D35C0D6805F00F05545DB0
:101190000E4A03F01F03D8400D4B04F01F0420FA41
:1011A00004F1116018600F2000F04CFA08B1012022
:1011B00032BD00F069FA002032BD06480068000C1C
:1011C00070470000184402584C210008100000200D
:1011D0000C0000200010005C0A01010002D4404B0A
:1011E0005A5470473F4801F00F01014401F8042CA4
:1011F00070473D490A6860F30A2240F2FA5060F3F2
:101200001F420A60704770B5374C23680124C3F34E
:101210000223C3F10705052D2FBF0F26C3F10706D3
:1012200004FA06F6761E1D1D072D34BF0023DB1EB3
:101230003140994004FA03F35B1E1A401143BDE8A4
:101240007040C9E7401EB0F1807F10B501D3012086
:1012500010BD2649F02248602548027000248C60A9
:1012600007230B60002010BDBFF35F8F21480021D2
:10127000026822F480320260016770471D4940F025
:1012800001000867086840F480300860BFF34F8FA2
:10129000BFF36F8F704710B5427817490A608B68AB
:1012A0005B085B008B6042684A60C27A037B847A89
:1012B000120642EA0372437B42EAC442847B42EA5A
:1012C0008342C37B42EA4442447A42EA0342037ABD
:1012D000007842EA042242EA430202438A6010BDD7
:1012E00000E400E018ED00E00CED00E010E000E0AC
:1012F00023ED00E024ED00E098ED00E02DE9F04161
:101300000400884662D0DFF81863326802F00F02EA
:10131000424506D200F0E0F8306800F00F0040458A
:1013200054D12178DFF8FC52480706D52069A96915
:1013300001F07001814200F0E3F82178080706D53A
:101340006069E96901F07001814200F0D2F821780A
:10135000C8060AD5A069EA6902F4E062824204D2B2
:10136000E96921F4E0610843E861227890060AD532
:10137000E0692A6A02F07002824204D2296A21F0EE
:101380007001084328622278900706D5E068AA69B0
:1013900002F00F02824200F0A5F82278D00731D582
:1013A000A969A06821F470610143A96160680228FD
:1013B00002D129688A0308E0032802D129688A013A
:1013C00003E0012803D12968C90503D430E02B6864
:1013D0005A072DD52969C90840EAC1002861FFF7DD
:1013E0002FFC07462869626800F03800B0EBC20F96
:1013F00008D0FFF725FCC01B41F289318842F1D3A8
:10140000032067E02278900706D5E068AA6902F019
:101410000F02904200F066F8306800F00F0080453F
:1014200008D200F059F8326802F00F02424501D0AC
:1014300001204FE02078420706D52069A96901F014
:101440007001884200F05CF82078020706D56069D8
:10145000E96901F07001884200F04BF82178C80674
:101460000AD5A069E96901F4E061884204D2EA6919
:1014700022F4E0621043E861207882060AD5E06930
:10148000296A01F07001884204D22A6A22F07002AF
:101490001043286200F03CF8AA69DFF89C11C2F3FF
:1014A00003228B5CAC69DFF8885104F00F040A5DFD
:1014B00003F01F03D840DFF8703102F01F0220FA5A
:1014C00002F119602860DFF864010068BDE8F041AE
:1014D00000F0B8B8BDE8F0813168090948EA0111A7
:1014E0003160704704D2A969090940EA0110A86176
:1014F000704704D2EA6922F070021043E861704735
:1015000004D2AA6922F070021043A861704700005B
:1015100030B5444B4748196911F0380104D01029FF
:101520000AD018290AD070E01A6894066ED5196896
:10153000C1F3C101C84030BD404830BD9C6A996AC2
:10154000DD6A5A6B05F00105C1F30511C2F3CC0247
:101550005543002900EE105AB8EE400A53D014F05B
:10156000030400EE901AF8EE600A02D0022C23D099
:1015700025E019689FED261A20EE010A8A0609D592
:101580001968C1F3C101C84001EE100A186BB8EE2A
:10159000411A02E0186B9FED1F1AC1EE200AC0F33A
:1015A000080001EE900AF8EE611A71EE801AB7EEAB
:1015B000000A31EE800A15E09FED172A01E09FED49
:1015C000172A186BDFED121AC2EE200AC0F30800CA
:1015D00001EE100AB8EE411A00EE211AB7EE000A29
:1015E00031EE000A186B20EE800AC0F34620401C42
:1015F00000EE900AF8EE600A80EE200ABCEEC00A07
:1016000010EE100A30BD002030BD0D4830BD000086
:10161000000000390024744C20BCBE4B0024744AE6
:101620000020005200440258100000200800002052
:101630000C0000200090D0034C21000840787D0170
:1016400000093D0038B504460D4D2878A8B10D4A73
:101650004FF47A731168B3FBF0F0B1FBF0F0FFF7D1
:10166000F1FD50B9102C08D2002221464FF0FF3076
:10167000FFF7C9FDAC60002032BD012032BD00BFC4
:10168000000000200C00002081B07648016841F085
:1016900002010160006800F002000090009901B0B2
:1016A000704738B5B6B0044614210022684600F0F1
:1016B000EDF8C021002206A800F0E8F821686A4889
:1016C000814240F0C3804FF0005206210023149164
:1016D000CDE906230125022304244FF440620021B2
:1016E0001095119406A812931393159216911791C1
:1016F000FEF7D2FD08B100F051FA5C484FF4806467
:1017000042685B4D42F008024260416800F0A3F875
:1017100042F010020260016801F010010591059A83
:10172000036843F020030360016801F0200100F02A
:1017300094F842F004020260016801F0040100F034
:101740008CF842F001020260016801F0010100F032
:1017500084F842F002020260016801F0020100F028
:101760007CF842F008020260016800F074F802217F
:101770004DF6700342F040020260006800F0400045
:101780000590059A0191694600220093029239481A
:1017900003920E2200F05CF80021022202913648EA
:1017A00003910E21049169460094019200F0F8F92A
:1017B00000220221029240F2C12303920E220191E3
:1017C000694600932D4800F043F8002140F27E4323
:1017D0000291022203910E21049169460093284848
:1017E000019200F0DDF9002103230291022203910E
:1017F00009210491694600932846019200F0D0F92E
:101800004FF47061022300910E2100220491019394
:10181000694602920392284600F0C2F90022022192
:101820000292184803920E2201916946009400F03A
:101830000FF802224FF404510192002300910E226E
:10184000029369460393104800F002F837B030BDA8
:10185000049200F0A5B901F008010591059B02680A
:1018600070470000F444025800100050E044025851
:1018700000040258001002580014025800080258D0
:1018800000000258000C0258001802584018491C69
:101890001CBFB1F1010100F8012DF9D170470EE034
:1018A00002684368024408305FEAC37C44BF4B448B
:1018B0005B1E52F804CB43F804CB091FF9D150F852
:1018C000041B0029ECD1704770B59AB0102100F0CC
:1018D00000F9FFF7C9FC002201238DF801208721C0
:1018E00001921F228DF8082000228DF800306846F2
:1018F0008DF80910A04EADF80A20A04C8DF80C30E0
:101900008DF80D30ADF80E20FFF7C5FC0420FFF771
:10191000B5FCFFF72DFC00F0E0F8142100F0D9F839
:101920009748026842F010020260016801F010015D
:1019300000F0CBF842F004020260016801F00401FB
:101940000591059A036843F020030360016801F0E4
:10195000200100F0BAF842F001020260016801F0D3
:1019600001010591059A036843F0020303600168D1
:1019700001F0020100F0A9F842F0080202600168DB
:1019800001F0080100F0A1F842F040020260006896
:10199000002200F040000590059930464FF4814147
:1019A00000F0E9F94FF400530022009369460192D8
:1019B0007448029200F0F4F801214FF48143019140
:1019C00000220093694602923046039200F0E8F844
:1019D0004FF44071022300910721002204910193EA
:1019E000694602926848039200F0DAF83421002236
:1019F0000DA8FFF74BFF342100F06BF8634800217E
:101A0000206061600E20A1600323E1600522216156
:101A10000721616140F2E511E06140F2E710A16247
:101A20000021206304F13400A36140F28E2322627E
:101A30004FF425720180817020466362E26200F0FB
:101A4000C1F908B100F0AAF8002119A80D910022EF
:101A50000F914FF4806510911291052115910DA9F8
:101A60004270827020460E92119213921495169233
:101A7000179218928DF8642000F0FDF908B100F07B
:101A80008DF807950CA8002305258370012200938B
:101A900069460193204602930393049305930693AA
:101AA000089509930A930B93ADF8303000F0E3F9F1
:101AB00008B100F073F84FF48041304600F05FF950
:101AC0004FF4FA7000F07EFAF5E70591059B026885
:101AD000704700226846FFF7D9BE10B59CB04C2174
:101AE000002209A8FFF7D2FE2021002201A8FFF75B
:101AF000CDFE022000F07AFA002001230090244855
:101B000002685208520002600168224801F0010197
:101B10000091026863F38F320260016801F4404172
:101B20000091009A01688B04FCD51B4801210468D0
:101B300002224023A408A400046009A80C910021FB
:101B400009920D931291FFF781F808B100F026F881
:101B500000213F23029101A8039104910591069170
:101B60000791089101210193FFF7C8FB08B100F02C
:101B700015F81CB010BD000000040258140000202D
:101B8000E044025800080258000C025800100050AF
:101B90002C040058184802582844025872B6FEE730
:101BA0002DE9F84F0027DFF8E8814FF0B045DFF866
:101BB000E4A102460B4630E0DFF8DC41A24214BF4C
:101BC0000A2409248C4044EA0E04DFF8D011C643ED
:101BD00041F82C4029685C683140E40248BF014369
:101BE000296069685C683140A40248BF01436960AC
:101BF000D8F804105C683140A40348BF0143C8F81A
:101C00000410D8F8001006EA010C5968C90348BF4F
:101C100040EA0C0CC8F800C07F1C186830FA07F1C5
:101C200000F0A7800121B9400840F5D04FEA470BEA
:101C300003245E6804FA0BF46FEA040C06F0030454
:101C4000012C18BF022C14D1D2F808E0DC680CEA91
:101C50000E0604FA0BF444EA060EC2F808E0D2F8C5
:101C600004E05C68C4F30014BC402EEA0101214387
:101C700051601C79996804F00304032C08BF012902
:101C800007D0D2F80CE001FA0BF10CEA0E04214364
:101C9000D1601C79B90004F00304022C11D1FC08B6
:101CA0000F2602EB840E01F01C04A640DEF8209003
:101CB00029EA06091E6906FA04F444EA0904CEF882
:101CC0002040D2F800E01E7906F0030606FA0BF673
:101CD0000CEA0E0446EA040BC2F800B05C6814F487
:101CE000403F99D0DAF800404FEA970C01F00C0120
:101CF0000F268E4044F00204CAF80040DAF800E0F3
:101D00000EF0020ECDF800E0009CDFF890E05EF8E7
:101D10002CE0234CA2422EEA060E08BF002427D056
:101D2000204CA24208BF012422D01F4CA24208BF6F
:101D300002241DD01D4CA24208BF032418D01C4E03
:101D4000B24208BF042413D01A4CA24208BF052493
:101D50000ED0194CA24208BF062409D0174CA2424B
:101D600008BF072404D0164CA2427FF425AF0824F4
:101D700028E7BDE8F18F02B9090481617047436922
:101D800001EA0302994341EA024181617047000080
:101D900080000058F44402580024025808040058F7
:101DA000000002580004025800080258000C0258B3
:101DB000001002580014025800180258001C025863
:101DC0000020025870B5040001D1012070BD04F15B
:101DD000A005687820B9002120462970FFF761FC32
:101DE000022068702068816921F070418161266855
:101DF000B3696068A168E268034320690B43134339
:101E00000343B3616369A069216840EA03408860C5
:101E1000E369206A226840EA0340D060616AA06AF0
:101E2000236840EA01401861E26A206B216840EAB9
:101E30000240486104F13400266841788378F26AF0
:101E400002F07F42F2622268D66A007846EA0343D3
:101E500043EA01210143D1622068416B41F0060150
:101E6000416320680121826942F001028261002001
:101E70006860697070BD2DE9F84300F020F808BF74
:101E800002200ED000F00FF84A4641462046B846E0
:101E900000F01DF8246801210020C4F8248071702E
:101EA0003070BDE8F2833420012700FB09F0377061
:101EB0000225342275702044383000F0BFB8044643
:101EC00004F1A0063078884691460128704730B565
:101ED00004684868E368C3F30B4504EBC2132D188C
:101EE0008433586800F4704058600A68E068C0F3B2
:101EF0000B408218521C42EA05455D60CA68E068E2
:101F00009D68C0F30A00801805F470459D608A68DA
:101F1000E468C4F30A04A218521C42EA0040986024
:101F20001869C008C00018610C691C6101F1300417
:101F300062782078A47840EA02208A6940EA044066
:101F400040EA026098615869000A000258614C69D1
:101F50005C61DA691A480240DA61CC690A6A1443A2
:101F6000DC61486A9862086908B904220EE0012819
:101F700008BF03220AD0042818BF022803D0032870
:101F800018BF072801D1022200E00122D86A00F020
:101F9000E020D8628D6A4C6808685543241A624371
:101FA000D21D42EA0542DA621A6BD20AD2021A63E1
:101FB000C86A1863196841F00101196030BD00005A
:101FC000F8F8FFFF38B50546FEF73AFE15F1010FA8
:101FD000044602D0044908782D18FEF731FE001B94
:101FE000A842FAD331BD00BF0000002038B5DFF8A9
:101FF0004840A268510708D4A36803F0070383424E
:1020000001D0012032BD002032BDA268D20840EAD2
:10201000C200A060FEF714FE054621688804F2D4D1
:10202000FEF70EFE00F002F8F7D3EAE7401B40F29D
:10203000E931884270470000044802584AB1000064
:1020400011F8013B521E00F8013B1CBF11F8013B87
:10205000F8E7704770B53148314A016841F47001C2
:1020600001601068072100F00F00072803D21068F4
:1020700061F3030010602B4B00261D682A4845F0D1
:1020800001051D601E611C6804401C60156805F098
:102090000F05072D03D9106861F3030010600022BB
:1020A00000219A610020D961204A186220499A6271
:1020B0002048D9620022186300215A6300249863E3
:1020C000D9631D49186400205C641A6822F48022D8
:1020D0001A6018660B681B0C1B04B3F1005F02D278
:1020E00001221648026016480168CB040BD404682C
:1020F00043F2D202134944F4805404600A60036836
:1021000023F48053036070BD0F48816841F00201E1
:10211000816002689104FCD57047000088ED00E002
:1021200000200052004402587FEDF6EA000202024D
:102130000000FF01800201010010005C08810051D5
:10214000D4440258004000520448025800000000E5
:1021500001020304010203040607080930B4002445
:1021600012E050F8043BDA0744BF4B445B1E091FE2
:10217000042943F8044BFAD21A468D0744BF1C8049
:10218000921CCB0748BF147050F8041B0029E8D1FB
:1021900030BC704710B5034A7A440832024C7C4484
:1021A000A41D03E0400000006000000004E011688E
:1021B000101D114488470246A242F8D110BD00000C
:1021C0004EF68851CEF20001086840F470000860B5
:1021D000BFF34F8FBFF36F8F4FF00170E1EE100A26
:1021E0007047000079FFFFFFA800000014000020E6
:1021F00000000000ABF6FFFF14000000AC00000080
:10220000000000200000000000F00DF8002801D0C0
:10221000FFF7C0FFAFF300800020AFF30080FFF7AF
:1022200053FB00F002F80120704700F001B80000F5
:102230000746384600F002F8FBE7000080B5AFF330
:102240000080024A11001820ABBEFBE72600020006
:102250000548014603B4684680F30988AFF300805F
:10226000FFF7AEFFFFF7D0FFA5EDF5FE0248804770
:10227000024880470248004709210008552000080D
:1022800051220008FEE7FEE7FEE7FEE7FEE77047A3
:102290007047704700F000B8024842680178511852
:1022A00041607047000000200100000000000000B5
:1022B000100000000090D0030090D003FFF7FEBF95
:1022C000FFF7FEBFFFF7FEBFFFF7FEBFFFF7FEBF42
:1022D000FFF7FEBFFFF7FEBFFFF7FEBFFFF7FEBF32
:1022E000FFF7FEBFFFF7FEBFFFF7FEBFFFF7FEBF22
:1022F000FFF7FEBFFFF7FEBFFFF7FEBFFFF7FEBF12
:04000005080022517C
:00000001FF
